:060000000A128A110C280F
:10000800FE00030EF1000A08F2000A128A111328F2
:100018000A128A110F2883010A128A115A280B1C06
:100028001628172831288312031306181C281D28A0
:100038002628061C202821281D280130F0007008D9
:1000480085073028861829282A283028861C2D2834
:100058002E282A28013085020B1072088A00710E9A
:100068008300FE0E7E0E090083160317880189019E
:100078008316031385018312031385018316031363
:10008800870183120313870183160313061486144A
:100098008113151495148B178B15161496140B10C1
:1000A8000F088F3960388F000F1408000A128A1160
:0E00B80038200A128A115F280A128A110C28B9
:08400000FF3FFF3FFF3FFF3FC0
:04400E00D420FF3F7C
:00000001FF
