:060000000A128A110E280D
:10000800FE00030EF1000408F2000A08F3000A12C9
:100018008A113E280A128A11112883133530FD00EF
:100028000230FE004230FF002B3084000A128A1191
:1000380026220A128A110A128A114C220A128A11DD
:10004800F5000A128A114D220A128A11F6000A12C4
:100058008A114E220A128A11F7000A128A114F22B7
:100068000A128A11F800BC01BD01F90183010A12C4
:100078008A110B2A0B1C412842287728F801F80A14
:10008800F601F60A8312031306184B284C28512848
:10009800F8017808F0007008F70077087806031967
:1000A8005628572860287808F0007008F7000130B3
:1000B800F0007008F90769288618632864286928F9
:1000C800F6017608F0007008F50075087606031941
:1000D8006E286F2875287608F0007008F500013042
:1000E800F9020B10B9280B1D7A287B28B9280B11A7
:1000F800F83083120313810088013C083D04031D76
:1001080086288728942835082B3E84008313000806
:100118008700081008150130BC000030BD00B92860
:100128003C033D04031D99289A28A72837082B3E2D
:100138008400831300088700081188140230BC006B
:100148000030BD00B92802303C063D04031DAD282F
:10015800AE28B92839082B3E84008313000887008D
:1001680088100814BC01BD01B92873088A007208F8
:100178008400710E8300FE0E7E0E090083120313A5
:10018800A501A11FC828C928D028A009A109A00A2B
:100198000319A10AA501A50AA31FD328D428DD287D
:1001A800A209A309A20A0319A30A0130F4007408DA
:1001B800A506A601A701200821040319E428E528BB
:1001C8001C29A401A40AF32801300310A00DA10DD5
:1001D800FF3E031DE9280130F4007408A407A11F9D
:1001E800F628F728E82801300310A60DA70DFF3ED2
:1001F800031DF82821082302031D042920082202D0
:10020800031C072908290F292008A2022108031C1A
:10021800A303A302261401300310A10CA00CFF3E77
:10022800031D10290130A402031D1B291C29F728CE
:1002380025080319202921292629A609A709A60A7C
:100248000319A70A2708A1002608A000080064309F
:1002580083120313A0000030A1007908A800A901A7
:100268002808A2002908A3000A128A1186210A1266
:100278008A11831203132008AA002A08BB006430DD
:10028800A0000030A1007908A800A9012808A20050
:100298002908A3000A128A11C2200A128A1183129D
:1002A80003132108BA002008B9000A30A000003062
:1002B800A1003B08A800A9012808A2002908A3005A
:1002C8000A128A11C2200A128A1183120313210802
:1002D800B8002008B7000A30A0000030A1003B0891
:1002E800A800A9012808A2002908A3000A128A1157
:1002F80086210A128A11831203132108B6002008E6
:10030800B500080083120313A501A31F8C298D29AA
:100318009429A209A309A20A0319A30AA501A50AF7
:10032800A11F972998299D29A009A109A00A0319A5
:10033800A10A200821040319A229A329D229A4016A
:10034800A40AB12901300310A00DA10DFF3E031D21
:10035800A7290130F4007408A407A11FB429B529FE
:10036800A62921082302031DBB2920082202031CF9
:10037800BE29BF29C5292008A2022108031CA303FE
:10038800A30201300310A10CA00CFF3E031DC629D7
:100398000130A402031DD129D229B5292508031942
:1003A800D629D729DC29A209A309A20A0319A30A75
:1003B8002308A1002208A00008008316031788015B
:1003C800890183160313850183120313850183169C
:1003D800031387018312031387018316031388010C
:1003E80083120313880183160313061486148113DA
:1003F800151495148B178B158B16161496140B1051
:100408000B110F088F3960388F000F1408000A127B
:100418008A11E1210A128A110A128A1135220A1256
:100428008A1179088312031385000A128A112B2175
:100438000A128A11152A0A128A110E287E088A00C1
:100448007F0882000A128A1122220A128A11800069
:10045800840A04087D0603190034FF0A0319FE0AFA
:10046800262A8316031381128111011481140115A0
:100478000B11F83083120313810008003F3406344F
:100488005B344F3466346D347D3407347F346F34D5
:08049800013401340134013488
:08400000FF3FFF3FFF3FFF3FC0
:04400E00D420FF3F7C
:00000001FF
