:060000000A128A110C280F
:10000800FE00030EF1000A08F2000A128A111428F1
:100018000A128A110F28F30183010A128A116A2829
:100028000B1C1728182832288312031306181D28BA
:100038001E282728061C212822281E280130F00007
:1000480070088507312886182A282B283128861C0D
:100058002E282F282B28013085020B100B1D352840
:1000680036283F280130F0007008F3070B113D30A7
:1000780083120313810072088A00710E8300FE0E3A
:100088007E0E09008316031788018901831603135E
:1000980085018312031385018316031387018312D5
:1000A800031387018316031306148614811315148A
:1000B80095148B178B158B16161496140B100B11A1
:1000C8000F088F3950388F000F1408000A128A1150
:1000D80046200A128A110A128A117C200A128A11F1
:1000E800730883120313870074280A128A110C28D4
:1000F80083160313811281110114811401150B1148
:0A0108003D3083120313810008004C
:08400000FF3FFF3FFF3FFF3FC0
:04400E00D420FF3F7C
:00000001FF
