:060000000A128A110C280F
:10000800FE00030EF1000A08F2000A128A111528F0
:100018000A128A110F28F301F40183010A128A11C6
:100028006F280B1C182819282C288312031306186C
:100038001E281F2824280130F000700885072A2868
:100048008618272828282A28013085020B104428DA
:100058000B1D2F28302844280130F0007008F407C1
:100068000A307406031D39283A283F280130F00069
:100078007008F307F4010B11D930831203138100C0
:1000880072088A00710E8300FE0E7E0E0900831628
:10009800031788018901831603138501831203134B
:1000A80085018316031387018312031387018316BF
:1000B8000313061486148113151495148B178B15C6
:1000C8008B16161496140B100B110F088F39603805
:1000D8008F000F1408000A128A114B200A128A1185
:1000E8000A128A1181200A128A11730883120313D3
:1000F800870079280A128A110C28831603138112A3
:1001080081110114811401150B11D93083120313C5
:04011800810008005A
:08400000FF3FFF3FFF3FFF3FC0
:04400E00D420FF3F7C
:00000001FF
